{
  "_format": "hh-sol-artifact-1",
  "contractName": "flowerNFT",
  "sourceName": "contracts/flowerNFT.sol",
  "abi": [
    {
      "inputs": [],
      "stateMutability": "nonpayable",
      "type": "constructor"
    },
    {
      "anonymous": false,
      "inputs": [
        {
          "indexed": true,
          "internalType": "address",
          "name": "owner",
          "type": "address"
        },
        {
          "indexed": true,
          "internalType": "address",
          "name": "approved",
          "type": "address"
        },
        {
          "indexed": true,
          "internalType": "uint256",
          "name": "tokenId",
          "type": "uint256"
        }
      ],
      "name": "Approval",
      "type": "event"
    },
    {
      "anonymous": false,
      "inputs": [
        {
          "indexed": true,
          "internalType": "address",
          "name": "owner",
          "type": "address"
        },
        {
          "indexed": true,
          "internalType": "address",
          "name": "operator",
          "type": "address"
        },
        {
          "indexed": false,
          "internalType": "bool",
          "name": "approved",
          "type": "bool"
        }
      ],
      "name": "ApprovalForAll",
      "type": "event"
    },
    {
      "anonymous": false,
      "inputs": [
        {
          "indexed": true,
          "internalType": "address",
          "name": "from",
          "type": "address"
        },
        {
          "indexed": true,
          "internalType": "address",
          "name": "to",
          "type": "address"
        },
        {
          "indexed": true,
          "internalType": "uint256",
          "name": "tokenId",
          "type": "uint256"
        }
      ],
      "name": "Transfer",
      "type": "event"
    },
    {
      "anonymous": false,
      "inputs": [
        {
          "indexed": false,
          "internalType": "address",
          "name": "sender",
          "type": "address"
        },
        {
          "indexed": false,
          "internalType": "uint256",
          "name": "tokenId",
          "type": "uint256"
        }
      ],
      "name": "newTokenMinted",
      "type": "event"
    },
    {
      "inputs": [
        {
          "internalType": "address",
          "name": "to",
          "type": "address"
        },
        {
          "internalType": "uint256",
          "name": "tokenId",
          "type": "uint256"
        }
      ],
      "name": "approve",
      "outputs": [],
      "stateMutability": "nonpayable",
      "type": "function"
    },
    {
      "inputs": [
        {
          "internalType": "address",
          "name": "owner",
          "type": "address"
        }
      ],
      "name": "balanceOf",
      "outputs": [
        {
          "internalType": "uint256",
          "name": "",
          "type": "uint256"
        }
      ],
      "stateMutability": "view",
      "type": "function"
    },
    {
      "inputs": [
        {
          "internalType": "uint256",
          "name": "tokenId",
          "type": "uint256"
        }
      ],
      "name": "getApproved",
      "outputs": [
        {
          "internalType": "address",
          "name": "",
          "type": "address"
        }
      ],
      "stateMutability": "view",
      "type": "function"
    },
    {
      "inputs": [
        {
          "internalType": "address",
          "name": "owner",
          "type": "address"
        },
        {
          "internalType": "address",
          "name": "operator",
          "type": "address"
        }
      ],
      "name": "isApprovedForAll",
      "outputs": [
        {
          "internalType": "bool",
          "name": "",
          "type": "bool"
        }
      ],
      "stateMutability": "view",
      "type": "function"
    },
    {
      "inputs": [],
      "name": "mintNFT",
      "outputs": [],
      "stateMutability": "nonpayable",
      "type": "function"
    },
    {
      "inputs": [],
      "name": "name",
      "outputs": [
        {
          "internalType": "string",
          "name": "",
          "type": "string"
        }
      ],
      "stateMutability": "view",
      "type": "function"
    },
    {
      "inputs": [
        {
          "internalType": "uint256",
          "name": "tokenId",
          "type": "uint256"
        }
      ],
      "name": "ownerOf",
      "outputs": [
        {
          "internalType": "address",
          "name": "",
          "type": "address"
        }
      ],
      "stateMutability": "view",
      "type": "function"
    },
    {
      "inputs": [
        {
          "internalType": "uint256",
          "name": "tokenId",
          "type": "uint256"
        }
      ],
      "name": "pickRandomColor1",
      "outputs": [
        {
          "internalType": "string",
          "name": "",
          "type": "string"
        }
      ],
      "stateMutability": "view",
      "type": "function"
    },
    {
      "inputs": [
        {
          "internalType": "uint256",
          "name": "tokenId",
          "type": "uint256"
        }
      ],
      "name": "pickRandomColor2",
      "outputs": [
        {
          "internalType": "string",
          "name": "",
          "type": "string"
        }
      ],
      "stateMutability": "view",
      "type": "function"
    },
    {
      "inputs": [
        {
          "internalType": "uint256",
          "name": "tokenId",
          "type": "uint256"
        }
      ],
      "name": "pickRandomColor3",
      "outputs": [
        {
          "internalType": "string",
          "name": "",
          "type": "string"
        }
      ],
      "stateMutability": "view",
      "type": "function"
    },
    {
      "inputs": [
        {
          "internalType": "uint256",
          "name": "tokenId",
          "type": "uint256"
        }
      ],
      "name": "pickRandomColor4",
      "outputs": [
        {
          "internalType": "string",
          "name": "",
          "type": "string"
        }
      ],
      "stateMutability": "view",
      "type": "function"
    },
    {
      "inputs": [
        {
          "internalType": "address",
          "name": "from",
          "type": "address"
        },
        {
          "internalType": "address",
          "name": "to",
          "type": "address"
        },
        {
          "internalType": "uint256",
          "name": "tokenId",
          "type": "uint256"
        }
      ],
      "name": "safeTransferFrom",
      "outputs": [],
      "stateMutability": "nonpayable",
      "type": "function"
    },
    {
      "inputs": [
        {
          "internalType": "address",
          "name": "from",
          "type": "address"
        },
        {
          "internalType": "address",
          "name": "to",
          "type": "address"
        },
        {
          "internalType": "uint256",
          "name": "tokenId",
          "type": "uint256"
        },
        {
          "internalType": "bytes",
          "name": "_data",
          "type": "bytes"
        }
      ],
      "name": "safeTransferFrom",
      "outputs": [],
      "stateMutability": "nonpayable",
      "type": "function"
    },
    {
      "inputs": [
        {
          "internalType": "address",
          "name": "operator",
          "type": "address"
        },
        {
          "internalType": "bool",
          "name": "approved",
          "type": "bool"
        }
      ],
      "name": "setApprovalForAll",
      "outputs": [],
      "stateMutability": "nonpayable",
      "type": "function"
    },
    {
      "inputs": [
        {
          "internalType": "bytes4",
          "name": "interfaceId",
          "type": "bytes4"
        }
      ],
      "name": "supportsInterface",
      "outputs": [
        {
          "internalType": "bool",
          "name": "",
          "type": "bool"
        }
      ],
      "stateMutability": "view",
      "type": "function"
    },
    {
      "inputs": [],
      "name": "symbol",
      "outputs": [
        {
          "internalType": "string",
          "name": "",
          "type": "string"
        }
      ],
      "stateMutability": "view",
      "type": "function"
    },
    {
      "inputs": [
        {
          "internalType": "uint256",
          "name": "tokenId",
          "type": "uint256"
        }
      ],
      "name": "tokenURI",
      "outputs": [
        {
          "internalType": "string",
          "name": "",
          "type": "string"
        }
      ],
      "stateMutability": "view",
      "type": "function"
    },
    {
      "inputs": [
        {
          "internalType": "address",
          "name": "from",
          "type": "address"
        },
        {
          "internalType": "address",
          "name": "to",
          "type": "address"
        },
        {
          "internalType": "uint256",
          "name": "tokenId",
          "type": "uint256"
        }
      ],
      "name": "transferFrom",
      "outputs": [],
      "stateMutability": "nonpayable",
      "type": "function"
    }
  ],
  "bytecode": "0x610f60604052610eb960808181529062003a4e60a03980516200002b9160089160209091019062000bb8565b50604080516104c0810182526104608101828152909182919062005106610480840139815260200160405180608001604052806041815260200162004ede60419139815260200160405180608001604052806041815260200162004bd560419139815260200160405180608001604052806041815260200162004af160419139815260200160405180608001604052806041815260200162005002604191398152602001604051806060016040528060408152602001620039cd6040913981526020016040518060600160405280604081526020016200494760409139815260200160405180608001604052806041815260200162004f1f60419139815260200160405180608001604052806041815260200162004c9860419139815260200160405180608001604052806041815260200162004ddc60419139815260200160405180608001604052806041815260200162004e1d60419139815260200160405180606001604052806021815260200162004b7360219139815260200160405180606001604052806040815260200162004e9e60409139815260200160405180608001604052806041815260200162004987604191398152602001604051806080016040528060418152602001620049c86041913981526020016040518060800160405280604181526020016200508460419139815260200160405180608001604052806041815260200162004cd960419139815260200160405180606001604052806040815260200162004e5e60409139815260200160405180606001604052806040815260200162004f6060409139815260200160405180608001604052806041815260200162004d1a60419139815260200160405180608001604052806041815260200162004b3260419139815260200160405180608001604052806041815260200162004b9460419139815260200160405180608001604052806041815260200162004a6f60419139815260200160405180606001604052806021815260200162004fe160219139815260200160405180606001604052806040815260200162004d9c60409139815260200160405180608001604052806041815260200162004d5b60419139815260200160405180608001604052806041815260200162004fa060419139815260200160405180608001604052806041815260200162004c166041913981526020016040518060800160405280604181526020016200504360419139815260200160405180606001604052806040815260200162004a0960409139815260200160405180606001604052806040815260200162004907604091398152602001604051806080016040528060418152602001620050c560419139815260200160405180608001604052806041815260200162004c5760419139815260200160405180608001604052806041815260200162004ab060419139815260200160405180608001604052806041815260200162003a0d60419139905280518051600991620004869183916020019062000bb8565b506020828101518051620004a1926001850192019062000bb8565b5060408201518051620004bf91600284019160209091019062000bb8565b5060608201518051620004dd91600384019160209091019062000bb8565b5060808201518051620004fb91600484019160209091019062000bb8565b5060a082015180516200051991600584019160209091019062000bb8565b5060c082015180516200053791600684019160209091019062000bb8565b5060e082015180516200055591600784019160209091019062000bb8565b5061010082015180516200057491600884019160209091019062000bb8565b5061012082015180516200059391600984019160209091019062000bb8565b506101408201518051620005b291600a84019160209091019062000bb8565b506101608201518051620005d191600b84019160209091019062000bb8565b506101808201518051620005f091600c84019160209091019062000bb8565b506101a082015180516200060f91600d84019160209091019062000bb8565b506101c082015180516200062e91600e84019160209091019062000bb8565b506101e082015180516200064d91600f84019160209091019062000bb8565b5061020082015180516200066c91601084019160209091019062000bb8565b5061022082015180516200068b91601184019160209091019062000bb8565b506102408201518051620006aa91601284019160209091019062000bb8565b506102608201518051620006c991601384019160209091019062000bb8565b506102808201518051620006e891601484019160209091019062000bb8565b506102a082015180516200070791601584019160209091019062000bb8565b506102c082015180516200072691601684019160209091019062000bb8565b506102e082015180516200074591601784019160209091019062000bb8565b5061030082015180516200076491601884019160209091019062000bb8565b5061032082015180516200078391601984019160209091019062000bb8565b506103408201518051620007a291601a84019160209091019062000bb8565b506103608201518051620007c191601b84019160209091019062000bb8565b506103808201518051620007e091601c84019160209091019062000bb8565b506103a08201518051620007ff91601d84019160209091019062000bb8565b506103c082015180516200081e91601e84019160209091019062000bb8565b506103e082015180516200083d91601f84019160209091019062000bb8565b5061040082015180516200085a9160208085019291019062000bb8565b5061042082015180516200087991602184019160209091019062000bb8565b5061044082015180516200089891602284019160209091019062000bb8565b5050604080516102008101825260036101c08201908152621c995960ea1b6101e0830152815281518083018352600580825264626c61636b60d81b6020838101919091528084019290925283518085018552600681526579656c6c6f7760d01b8184015283850152835180850185526004815263626c756560e01b818401526060840152835180850185529081526433b932b2b760d91b818301526080830152825180840184526007808252660466070866482760cb1b8284015260a084019190915283518085018552818152662335383136636360c81b8184015260c084015283518085018552818152662339316536313560c81b8184015260e084015283518085018552818152662339613431373560c81b818401526101008401528351808501855281815266046c260c66a70760cb1b8184015261012084015283518085018552908152662365623737313760c81b8183015261014083015282518084018452601481527f75726c2823666f726573744772616469656e74290000000000000000000000008183015261016083015282518084018452601681527f75726c282374726f706963616c4772616469656e742900000000000000000000818301526101808301528251808401909352601183527075726c2823736b794772616469656e742960781b908301526101a081019190915262000a9f9150602c90600e62000c47565b5034801562000aad57600080fd5b506040805180820182526009815268119b1bddd95c93919560ba1b60208083019182528351808501909452600484526323262ba960e11b90840152815191929162000afb9160009162000bb8565b50805162000b1190600190602084019062000bb8565b50505062000b4360405180606001604052806026815260200162004a496026913962000b4960201b6200123b1760201c565b62000db4565b62000b948160405160240162000b60919062000d21565b60408051601f198184030181529190526020810180516001600160e01b0390811663104c13eb60e21b1790915262000b9716565b50565b80516a636f6e736f6c652e6c6f67602083016000808483855afa5050505050565b82805462000bc69062000d77565b90600052602060002090601f01602090048101928262000bea576000855562000c35565b82601f1062000c0557805160ff191683800117855562000c35565b8280016001018555821562000c35579182015b8281111562000c3557825182559160200191906001019062000c18565b5062000c4392915062000ca7565b5090565b82805482825590600052602060002090810192821562000c99579160200282015b8281111562000c99578251805162000c8891849160209091019062000bb8565b509160200191906001019062000c68565b5062000c4392915062000cbe565b5b8082111562000c43576000815560010162000ca8565b8082111562000c4357600062000cd5828262000cdf565b5060010162000cbe565b50805462000ced9062000d77565b6000825580601f1062000d01575062000b94565b601f01602090049060005260206000209081019062000b94919062000ca7565b6000602080835283518082850152825b8181101562000d4f5785810183015185820160400152820162000d31565b8181111562000d615783604083870101525b50601f01601f1916929092016040019392505050565b60028104600182168062000d8c57607f821691505b6020821081141562000dae57634e487b7160e01b600052602260045260246000fd5b50919050565b612c098062000dc46000396000f3fe608060405234801561001057600080fd5b50600436106101365760003560e01c806370a08231116100b2578063b88d4fde11610081578063d2f947c311610066578063d2f947c314610276578063e985e9c514610289578063f1e46a051461029c57610136565b8063b88d4fde14610250578063c87b56dd1461026357610136565b806370a082311461020257806385290c401461022257806395d89b4114610235578063a22cb4651461023d57610136565b80630db6a0161161010957806323b872dd116100ee57806323b872dd146101c957806342842e0e146101dc5780636352211e146101ef57610136565b80630db6a016146101ae57806314f710fe146101c157610136565b806301ffc9a71461013b57806306fdde0314610164578063081812fc14610179578063095ea7b314610199575b600080fd5b61014e610149366004611eeb565b6102af565b60405161015b919061247f565b60405180910390f35b61016c610329565b60405161015b919061248a565b61018c610187366004611f23565b6103bb565b60405161015b9190612416565b6101ac6101a7366004611ec2565b610407565b005b61016c6101bc366004611f23565b61049f565b6101ac6105a1565b6101ac6101d7366004611d81565b610ea4565b6101ac6101ea366004611d81565b610edc565b61018c6101fd366004611f23565b610ef7565b610215610210366004611d35565b610f2c565b60405161015b9190612a09565b61016c610230366004611f23565b610f70565b61016c610f90565b6101ac61024b366004611e88565b610f9f565b6101ac61025e366004611dbc565b61106d565b61016c610271366004611f23565b6110ac565b61016c610284366004611f23565b6111cd565b61014e610297366004611d4f565b6111ed565b61016c6102aa366004611f23565b61121b565b60006001600160e01b031982167f80ac58cd00000000000000000000000000000000000000000000000000000000148061031257506001600160e01b031982167f5b5e139f00000000000000000000000000000000000000000000000000000000145b806103215750610321826112af565b90505b919050565b60606000805461033890612aac565b80601f016020809104026020016040519081016040528092919081815260200182805461036490612aac565b80156103b15780601f10610386576101008083540402835291602001916103b1565b820191906000526020600020905b81548152906001019060200180831161039457829003601f168201915b5050505050905090565b60006103c6826112e1565b6103eb5760405162461bcd60e51b81526004016103e290612849565b60405180910390fd5b506000908152600460205260409020546001600160a01b031690565b600061041282610ef7565b9050806001600160a01b0316836001600160a01b031614156104465760405162461bcd60e51b81526004016103e29061294f565b806001600160a01b03166104586112fe565b6001600160a01b031614806104745750610474816102976112fe565b6104905760405162461bcd60e51b81526004016103e290612643565b61049a8383611302565b505050565b606060006104d36104af8461137d565b6040516020016104bf91906122ca565b6040516020818303038152906040526114cc565b602c549091506104e39082612b02565b9050602c818154811061050657634e487b7160e01b600052603260045260246000fd5b90600052602060002001805461051b90612aac565b80601f016020809104026020016040519081016040528092919081815260200182805461054790612aac565b80156105945780601f1061056957610100808354040283529160200191610594565b820191906000526020600020905b81548152906001019060200180831161057757829003601f168201915b5050505050915050919050565b60006105ad60076114fd565b9050600060405180608001604052806105c58461121b565b81526020016105d38461049f565b81526020016105e184610f70565b81526020016105ef846111cd565b905260408051600c8082526101a0820190925291925060009190816020015b606081526020019060019003908161060e5750508251602080850151604051939450610647936008939260099291600a91859101612120565b6040516020818303038152906040528160008151811061067757634e487b7160e01b600052603260045260246000fd5b6020908102919091018101919091528281015183516040516106a793600b9392600c929091600d91859101612120565b604051602081830303815290604052816001815181106106d757634e487b7160e01b600052603260045260246000fd5b60209081029190910181019190915260408084015184516060860151925161070994600e94600f939260109201612120565b6040516020818303038152906040528160028151811061073957634e487b7160e01b600052603260045260246000fd5b60209081029190910181019190915260408084015184516060860151925161076b946011946012939260139201612120565b6040516020818303038152906040528160038151811061079b57634e487b7160e01b600052603260045260246000fd5b6020908102919091018101919091528281015160408085015190516107cd936014939260159284926016929101612120565b604051602081830303815290604052816004815181106107fd57634e487b7160e01b600052603260045260246000fd5b60209081029190910181019190915260408084015160608501519151610830936017936018929091601991839101612120565b6040516020818303038152906040528160058151811061086057634e487b7160e01b600052603260045260246000fd5b60209081029190910181019190915282516040808501516060860151915161089394601a9493601b9392601c9201612120565b604051602081830303815290604052816006815181106108c357634e487b7160e01b600052603260045260246000fd5b6020908102919091018101919091526040808401518451606086015192516108f594601d94601e9392601f9201612120565b6040516020818303038152906040528160078151811061092557634e487b7160e01b600052603260045260246000fd5b60209081029190910181019190915282810151835160608501516040516109589493926021929091602291908601612120565b6040516020818303038152906040528160088151811061098857634e487b7160e01b600052603260045260246000fd5b60209081029190910181019190915282810151835160608501516040516109bb9460239493602493909260259201612120565b604051602081830303815290604052816009815181106109eb57634e487b7160e01b600052603260045260246000fd5b60209081029190910181019190915260408084015160608501519151610a1e936026936027929091602891859101612120565b60405160208183030381529060405281600a81518110610a4e57634e487b7160e01b600052603260045260246000fd5b60209081029190910181019190915260608301516040808501519051610a829360299392602a929091602b91859101612120565b60405160208183030381529060405281600b81518110610ab257634e487b7160e01b600052603260045260246000fd5b6020026020010181905250600081600081518110610ae057634e487b7160e01b600052603260045260246000fd5b602002602001015182600181518110610b0957634e487b7160e01b600052603260045260246000fd5b602002602001015183600281518110610b3257634e487b7160e01b600052603260045260246000fd5b602002602001015184600381518110610b5b57634e487b7160e01b600052603260045260246000fd5b602002602001015185600481518110610b8457634e487b7160e01b600052603260045260246000fd5b602002602001015186600581518110610bad57634e487b7160e01b600052603260045260246000fd5b6020026020010151604051602001610bca9695949392919061204a565b6040516020818303038152906040529050600082600681518110610bfe57634e487b7160e01b600052603260045260246000fd5b602002602001015183600781518110610c2757634e487b7160e01b600052603260045260246000fd5b602002602001015184600881518110610c5057634e487b7160e01b600052603260045260246000fd5b602002602001015185600981518110610c7957634e487b7160e01b600052603260045260246000fd5b602002602001015186600a81518110610ca257634e487b7160e01b600052603260045260246000fd5b602002602001015187600b81518110610ccb57634e487b7160e01b600052603260045260246000fd5b6020026020010151604051602001610ce89695949392919061204a565b604051602081830303815290604052905060008282604051602001610d0e9291906120c9565b60405160208183030381529060405290506000610d7c86600001518760200151604051602001610d3f92919061201b565b604051602081830303815290604052610d5784611501565b604051602001610d68929190612187565b604051602081830303815290604052611501565b9050600081604051602001610d919190612354565b60408051601f19818403018152828201909152601582527f0a2d2d2d2d2d2d2d2d2d2d2d2d2d2d2d2d2d2d2d2d000000000000000000000060208301529150610dd99061123b565b610de28161123b565b610e206040518060400160405280601581526020017f2d2d2d2d2d2d2d2d2d2d2d2d2d2d2d2d2d2d2d2d0a000000000000000000000081525061123b565b610e2a33896116ac565b610e3488826116ca565b610e3e600761170e565b610e61604051806060016040528060258152602001612b6f602591398933611717565b7fdee6961c63e1e04aaaf4f5d72d14927b189488763179688429797ee6a104cf383389604051610e92929190612466565b60405180910390a15050505050505050565b610eb5610eaf6112fe565b8261178c565b610ed15760405162461bcd60e51b81526004016103e2906129ac565b61049a838383611809565b61049a8383836040518060200160405280600081525061106d565b6000818152600260205260408120546001600160a01b0316806103215760405162461bcd60e51b81526004016103e2906126fd565b60006001600160a01b038216610f545760405162461bcd60e51b81526004016103e2906126a0565b506001600160a01b031660009081526003602052604090205490565b606060006104d3610f808461137d565b6040516020016104bf91906123d1565b60606001805461033890612aac565b610fa76112fe565b6001600160a01b0316826001600160a01b03161415610fd85760405162461bcd60e51b81526004016103e2906125c0565b8060056000610fe56112fe565b6001600160a01b03908116825260208083019390935260409182016000908120918716808252919093529120805460ff1916921515929092179091556110296112fe565b6001600160a01b03167f17307eab39ab6107e8899845ad3d59bd9653f200f220920489ca2b5937696c3183604051611061919061247f565b60405180910390a35050565b61107e6110786112fe565b8361178c565b61109a5760405162461bcd60e51b81526004016103e2906129ac565b6110a684848484611943565b50505050565b60606110b7826112e1565b6110d35760405162461bcd60e51b81526004016103e2906127ec565b600082815260066020526040812080546110ec90612aac565b80601f016020809104026020016040519081016040528092919081815260200182805461111890612aac565b80156111655780601f1061113a57610100808354040283529160200191611165565b820191906000526020600020905b81548152906001019060200180831161114857829003601f168201915b505050505090506000611176611976565b905080516000141561118a57509050610324565b8151156111bc5780826040516020016111a492919061201b565b60405160208183030381529060405292505050610324565b6111c584611988565b949350505050565b606060006104d36111dd8461137d565b6040516020016104bf919061230f565b6001600160a01b03918216600090815260056020908152604080832093909416825291909152205460ff1690565b606060006104d361122b8461137d565b6040516020016104bf9190612399565b6112ac8160405160240161124f919061248a565b60408051601f198184030181529190526020810180517bffffffffffffffffffffffffffffffffffffffffffffffffffffffff167f41304fac00000000000000000000000000000000000000000000000000000000179052611a0b565b50565b6001600160e01b031981167f01ffc9a70000000000000000000000000000000000000000000000000000000014919050565b6000908152600260205260409020546001600160a01b0316151590565b3390565b6000818152600460205260409020805473ffffffffffffffffffffffffffffffffffffffff19166001600160a01b038416908117909155819061134482610ef7565b6001600160a01b03167f8c5be1e5ebec7d5bd14f71427d1e84f3dd0314c0f7b2291e5b200ac8c7c3b92560405160405180910390a45050565b6060816113be575060408051808201909152600181527f30000000000000000000000000000000000000000000000000000000000000006020820152610324565b8160005b81156113e857806113d281612ae7565b91506113e19050600a83612a36565b91506113c2565b60008167ffffffffffffffff81111561141157634e487b7160e01b600052604160045260246000fd5b6040519080825280601f01601f19166020018201604052801561143b576020820181803683370190505b5090505b84156111c557611450600183612a69565b915061145d600a86612b02565b611468906030612a1e565b60f81b81838151811061148b57634e487b7160e01b600052603260045260246000fd5b60200101907effffffffffffffffffffffffffffffffffffffffffffffffffffffffffffff1916908160001a9053506114c5600a86612a36565b945061143f565b6000816040516020016114df9190611fff565b60408051601f19818403018152919052805160209091012092915050565b5490565b805160609080611521575050604080516020810190915260008152610324565b60006003611530836002612a1e565b61153a9190612a36565b611545906004612a4a565b90506000611554826020612a1e565b67ffffffffffffffff81111561157a57634e487b7160e01b600052604160045260246000fd5b6040519080825280601f01601f1916602001820160405280156115a4576020820181803683370190505b5090506000604051806060016040528060408152602001612b94604091399050600181016020830160005b86811015611630576003818a01810151603f601282901c8116860151600c83901c8216870151600684901c831688015192909316870151600891821b60ff94851601821b92841692909201901b91160160e01b8352600490920191016115cf565b50600386066001811461164a57600281146116765761169e565b7f3d3d00000000000000000000000000000000000000000000000000000000000060011983015261169e565b7f3d000000000000000000000000000000000000000000000000000000000000006000198301525b505050918152949350505050565b6116c6828260405180602001604052806000815250611a2c565b5050565b6116d3826112e1565b6116ef5760405162461bcd60e51b81526004016103e29061275a565b6000828152600660209081526040909120825161049a92840190611c85565b80546001019055565b61049a83838360405160240161172f9392919061249d565b60408051601f198184030181529190526020810180517bffffffffffffffffffffffffffffffffffffffffffffffffffffffff167fe3849f7900000000000000000000000000000000000000000000000000000000179052611a0b565b6000611797826112e1565b6117b35760405162461bcd60e51b81526004016103e2906125f7565b60006117be83610ef7565b9050806001600160a01b0316846001600160a01b031614806117f95750836001600160a01b03166117ee846103bb565b6001600160a01b0316145b806111c557506111c581856111ed565b826001600160a01b031661181c82610ef7565b6001600160a01b0316146118425760405162461bcd60e51b81526004016103e290612895565b6001600160a01b0382166118685760405162461bcd60e51b81526004016103e290612563565b61187383838361049a565b61187e600082611302565b6001600160a01b03831660009081526003602052604081208054600192906118a7908490612a69565b90915550506001600160a01b03821660009081526003602052604081208054600192906118d5908490612a1e565b9091555050600081815260026020526040808220805473ffffffffffffffffffffffffffffffffffffffff19166001600160a01b0386811691821790925591518493918716917fddf252ad1be2c89b69c2b068fc378daa952ba7f163c4a11628f55a4df523b3ef91a4505050565b61194e848484611809565b61195a84848484611a5f565b6110a65760405162461bcd60e51b81526004016103e2906124cf565b60408051602081019091526000815290565b6060611993826112e1565b6119af5760405162461bcd60e51b81526004016103e2906128f2565b60006119b9611976565b905060008151116119d95760405180602001604052806000815250611a04565b806119e38461137d565b6040516020016119f492919061201b565b6040516020818303038152906040525b9392505050565b80516a636f6e736f6c652e6c6f67602083016000808483855afa5050505050565b611a368383611b93565b611a436000848484611a5f565b61049a5760405162461bcd60e51b81526004016103e2906124cf565b6000611a73846001600160a01b0316611c7f565b15611b8857836001600160a01b031663150b7a02611a8f6112fe565b8786866040518563ffffffff1660e01b8152600401611ab1949392919061242a565b602060405180830381600087803b158015611acb57600080fd5b505af1925050508015611afb575060408051601f3d908101601f19168201909252611af891810190611f07565b60015b611b55573d808015611b29576040519150601f19603f3d011682016040523d82523d6000602084013e611b2e565b606091505b508051611b4d5760405162461bcd60e51b81526004016103e2906124cf565b805181602001fd5b6001600160e01b0319167f150b7a02000000000000000000000000000000000000000000000000000000001490506111c5565b506001949350505050565b6001600160a01b038216611bb95760405162461bcd60e51b81526004016103e2906127b7565b611bc2816112e1565b15611bdf5760405162461bcd60e51b81526004016103e29061252c565b611beb6000838361049a565b6001600160a01b0382166000908152600360205260408120805460019290611c14908490612a1e565b9091555050600081815260026020526040808220805473ffffffffffffffffffffffffffffffffffffffff19166001600160a01b03861690811790915590518392907fddf252ad1be2c89b69c2b068fc378daa952ba7f163c4a11628f55a4df523b3ef908290a45050565b3b151590565b828054611c9190612aac565b90600052602060002090601f016020900481019282611cb35760008555611cf9565b82601f10611ccc57805160ff1916838001178555611cf9565b82800160010185558215611cf9579182015b82811115611cf9578251825591602001919060010190611cde565b50611d05929150611d09565b5090565b5b80821115611d055760008155600101611d0a565b80356001600160a01b038116811461032457600080fd5b600060208284031215611d46578081fd5b611a0482611d1e565b60008060408385031215611d61578081fd5b611d6a83611d1e565b9150611d7860208401611d1e565b90509250929050565b600080600060608486031215611d95578081fd5b611d9e84611d1e565b9250611dac60208501611d1e565b9150604084013590509250925092565b60008060008060808587031215611dd1578081fd5b611dda85611d1e565b93506020611de9818701611d1e565b935060408601359250606086013567ffffffffffffffff80821115611e0c578384fd5b818801915088601f830112611e1f578384fd5b813581811115611e3157611e31612b42565b604051601f8201601f1916810185018381118282101715611e5457611e54612b42565b60405281815283820185018b1015611e6a578586fd5b81858501868301379081019093019390935250939692955090935050565b60008060408385031215611e9a578182fd5b611ea383611d1e565b915060208301358015158114611eb7578182fd5b809150509250929050565b60008060408385031215611ed4578182fd5b611edd83611d1e565b946020939093013593505050565b600060208284031215611efc578081fd5b8135611a0481612b58565b600060208284031215611f18578081fd5b8151611a0481612b58565b600060208284031215611f34578081fd5b5035919050565b60008151808452611f53816020860160208601612a80565b601f01601f19169290920160200192915050565b805460009060028104600180831680611f8157607f831692505b6020808410821415611fa157634e487b7160e01b86526022600452602486fd5b818015611fb55760018114611fc657611ff3565b60ff19861689528489019650611ff3565b611fcf88612a12565b60005b86811015611feb5781548b820152908501908301611fd2565b505084890196505b50505050505092915050565b60008251612011818460208701612a80565b9190910192915050565b6000835161202d818460208801612a80565b835190830190612041818360208801612a80565b01949350505050565b60008751602061205d8285838d01612a80565b8851918401916120708184848d01612a80565b88519201916120828184848c01612a80565b87519201916120948184848b01612a80565b86519201916120a68184848a01612a80565b85519201916120b88184848901612a80565b919091019998505050505050505050565b600083516120db818460208801612a80565b8351908301906120ef818360208801612a80565b7f272f3e3c2f7376673e00000000000000000000000000000000000000000000009101908152600901949350505050565b600061212c8289611f67565b875161213c818360208c01612a80565b61214881830189611f67565b915050855161215b818360208a01612a80565b61216781830187611f67565b915050835161217a818360208801612a80565b0198975050505050505050565b60007f7b226e616d65223a202247656e6572617469766520666c6f7765722028000000825283516121bf81601d850160208801612a80565b7f29222c20226465736372697074696f6e223a2022412067656f6d657472696320601d918401918201527f666c6f77657220626c6f73736f6d7320696e20746865207275696e73206f6620603d8201527f77686174206576656e7475616c6c7920626563616d6520746865206d65746176605d8201527f657273652e222c2022696d616765223a2022646174613a696d6167652f737667607d8201527f2b786d6c3b6261736536342c0000000000000000000000000000000000000000609d82015283516122948160a9840160208801612a80565b7f227d00000000000000000000000000000000000000000000000000000000000060a9929091019182015260ab01949350505050565b60007f434f4c4f5274776f00000000000000000000000000000000000000000000000082528251612302816008850160208701612a80565b9190910160080192915050565b60007f434f4c4f52666f7572000000000000000000000000000000000000000000000082528251612347816009850160208701612a80565b9190910160090192915050565b60007f646174613a6170706c69636174696f6e2f6a736f6e3b6261736536342c0000008252825161238c81601d850160208701612a80565b91909101601d0192915050565b60007f434f4c4f526f6e6500000000000000000000000000000000000000000000000082528251612302816008850160208701612a80565b60007f434f4c4f527468726565000000000000000000000000000000000000000000008252825161240981600a850160208701612a80565b91909101600a0192915050565b6001600160a01b0391909116815260200190565b60006001600160a01b0380871683528086166020840152508360408301526080606083015261245c6080830184611f3b565b9695505050505050565b6001600160a01b03929092168252602082015260400190565b901515815260200190565b600060208252611a046020830184611f3b565b6000606082526124b06060830186611f3b565b90508360208301526001600160a01b0383166040830152949350505050565b60208082526032908201527f4552433732313a207472616e7366657220746f206e6f6e20455243373231526560408201527f63656976657220696d706c656d656e7465720000000000000000000000000000606082015260800190565b6020808252601c908201527f4552433732313a20746f6b656e20616c7265616479206d696e74656400000000604082015260600190565b60208082526024908201527f4552433732313a207472616e7366657220746f20746865207a65726f2061646460408201527f7265737300000000000000000000000000000000000000000000000000000000606082015260800190565b60208082526019908201527f4552433732313a20617070726f766520746f2063616c6c657200000000000000604082015260600190565b6020808252602c908201527f4552433732313a206f70657261746f7220717565727920666f72206e6f6e657860408201526b34b9ba32b73a103a37b5b2b760a11b606082015260800190565b60208082526038908201527f4552433732313a20617070726f76652063616c6c6572206973206e6f74206f7760408201527f6e6572206e6f7220617070726f76656420666f7220616c6c0000000000000000606082015260800190565b6020808252602a908201527f4552433732313a2062616c616e636520717565727920666f7220746865207a6560408201527f726f206164647265737300000000000000000000000000000000000000000000606082015260800190565b60208082526029908201527f4552433732313a206f776e657220717565727920666f72206e6f6e657869737460408201527f656e7420746f6b656e0000000000000000000000000000000000000000000000606082015260800190565b6020808252602e908201527f45524337323155524953746f726167653a2055524920736574206f66206e6f6e60408201527f6578697374656e7420746f6b656e000000000000000000000000000000000000606082015260800190565b6020808252818101527f4552433732313a206d696e7420746f20746865207a65726f2061646472657373604082015260600190565b60208082526031908201527f45524337323155524953746f726167653a2055524920717565727920666f722060408201527f6e6f6e6578697374656e7420746f6b656e000000000000000000000000000000606082015260800190565b6020808252602c908201527f4552433732313a20617070726f76656420717565727920666f72206e6f6e657860408201526b34b9ba32b73a103a37b5b2b760a11b606082015260800190565b60208082526029908201527f4552433732313a207472616e73666572206f6620746f6b656e2074686174206960408201527f73206e6f74206f776e0000000000000000000000000000000000000000000000606082015260800190565b6020808252602f908201527f4552433732314d657461646174613a2055524920717565727920666f72206e6f60408201527f6e6578697374656e7420746f6b656e0000000000000000000000000000000000606082015260800190565b60208082526021908201527f4552433732313a20617070726f76616c20746f2063757272656e74206f776e6560408201527f7200000000000000000000000000000000000000000000000000000000000000606082015260800190565b60208082526031908201527f4552433732313a207472616e736665722063616c6c6572206973206e6f74206f60408201527f776e6572206e6f7220617070726f766564000000000000000000000000000000606082015260800190565b90815260200190565b60009081526020902090565b60008219821115612a3157612a31612b16565b500190565b600082612a4557612a45612b2c565b500490565b6000816000190483118215151615612a6457612a64612b16565b500290565b600082821015612a7b57612a7b612b16565b500390565b60005b83811015612a9b578181015183820152602001612a83565b838111156110a65750506000910152565b600281046001821680612ac057607f821691505b60208210811415612ae157634e487b7160e01b600052602260045260246000fd5b50919050565b6000600019821415612afb57612afb612b16565b5060010190565b600082612b1157612b11612b2c565b500690565b634e487b7160e01b600052601160045260246000fd5b634e487b7160e01b600052601260045260246000fd5b634e487b7160e01b600052604160045260246000fd5b6001600160e01b0319811681146112ac57600080fdfe416e204e465420772f20494420257320686173206265656e206d696e74656420746f2025734142434445464748494a4b4c4d4e4f505152535455565758595a6162636465666768696a6b6c6d6e6f707172737475767778797a303132333435363738392b2fa2646970667358221220e160a4cb7c2f156b130a6b2715f76c517c3c23cbbd0dc8503361cd6550bba66764736f6c63430008000033272f3e3c75736520786c696e6b3a687265663d2723723227207472616e73666f726d3d27726f7461746528333020313630203136302927207374726f6b653d27272f3e3c75736520786c696e6b3a687265663d2723723627207472616e73666f726d3d27726f746174652833333020313630203136302927207374726f6b653d273c7376672076657273696f6e3d27312e31272077696474683d2737323027206865696768743d27373230272076696577426f783d273020302033323020333230272066696c6c3d276e6f6e6527207374726f6b653d272330303027207374726f6b652d6c696e656361703d27726f756e642720786d6c6e733d27687474703a2f2f7777772e77332e6f72672f323030302f7376672720786d6c6e733a786c696e6b3d27687474703a2f2f7777772e77332e6f72672f313939392f786c696e6b273e3c646566733e3c706174682069643d277231273e3c616e696d6174652069643d27703127206174747269627574654e616d653d2764272076616c7565733d276d3136302c3136306c302c3020302c303b6d3133302c3131306c33302c2d31372033302c31373b6d3133302c36306c33302c2d31372033302c31373b6d3136302c32306c302c3020302c3027206475723d2736732720726570656174436f756e743d27696e646566696e697465272f3e3c616e696d617465206174747269627574654e616d653d277374726f6b652d7769647468272076616c7565733d27303b343b343b343b3027206475723d2736732720726570656174436f756e743d27696e646566696e6974652720626567696e3d2770312e626567696e272f3e3c2f706174683e3c706174682069643d277232273e3c616e696d617465206174747269627574654e616d653d2764272076616c7565733d276d3136302c3136306c302c3020302c303b6d3133302c3131306c33302c2d31372033302c31373b6d3133302c36306c33302c2d31372033302c31373b6d3136302c32306c302c3020302c3027206475723d2736732720726570656174436f756e743d27696e646566696e6974652720626567696e3d2770312e626567696e2b3173272f3e3c616e696d617465206174747269627574654e616d653d277374726f6b652d7769647468272076616c7565733d27303b343b343b343b3027206475723d2736732720726570656174436f756e743d27696e646566696e6974652720626567696e3d2770312e626567696e2b3173272f3e3c2f706174683e3c706174682069643d277233273e3c616e696d617465206174747269627574654e616d653d2764272076616c7565733d276d3136302c3136306c302c3020302c303b6d3133302c3131306c33302c2d31372033302c31373b6d3133302c36306c33302c2d31372033302c31373b6d3136302c32306c302c3020302c3027206475723d2736732720726570656174436f756e743d27696e646566696e6974652720626567696e3d2770312e626567696e2b3273272f3e3c616e696d617465206174747269627574654e616d653d277374726f6b652d7769647468272076616c7565733d27303b343b343b343b3027206475723d2736732720726570656174436f756e743d27696e646566696e6974652720626567696e3d2770312e626567696e2b3273272f3e3c2f706174683e3c706174682069643d277234273e3c616e696d6174652069643d27703127206174747269627574654e616d653d2764272076616c7565733d276d3136302c3136306c302c3020302c303b6d3133302c3131306c33302c2d31372033302c31373b6d3133302c36306c33302c2d31372033302c31373b6d3136302c32306c302c3020302c3027206475723d2736732720726570656174436f756e743d27696e646566696e6974652720626567696e3d2770312e626567696e2b3373272f3e3c616e696d617465206174747269627574654e616d653d277374726f6b652d7769647468272076616c7565733d27303b343b343b343b3027206475723d2736732720726570656174436f756e743d27696e646566696e6974652720626567696e3d2770312e626567696e2b3373272f3e3c2f706174683e3c706174682069643d277235273e3c616e696d617465206174747269627574654e616d653d2764272076616c7565733d276d3136302c3136306c302c3020302c303b6d3133302c3131306c33302c2d31372033302c31373b6d3133302c36306c33302c2d31372033302c31373b6d3136302c32306c302c3020302c3027206475723d2736732720726570656174436f756e743d27696e646566696e6974652720626567696e3d2770312e626567696e2b3473272f3e3c616e696d617465206174747269627574654e616d653d277374726f6b652d7769647468272076616c7565733d27303b343b343b343b3027206475723d2736732720726570656174436f756e743d27696e646566696e6974652720626567696e3d2770312e626567696e2b3473272f3e3c2f706174683e3c706174682069643d277236273e3c616e696d617465206174747269627574654e616d653d2764272076616c7565733d276d3136302c3136306c302c3020302c303b6d3133302c3131306c33302c2d31372033302c31373b6d3133302c36306c33302c2d31372033302c31373b6d3136302c32306c302c3020302c3027206475723d2736732720726570656174436f756e743d27696e646566696e6974652720626567696e3d2770312e626567696e2b3573272f3e3c616e696d617465206174747269627574654e616d653d277374726f6b652d7769647468272076616c7565733d27303b343b343b343b3027206475723d2736732720726570656174436f756e743d27696e646566696e6974652720626567696e3d2770312e626567696e2b3573272f3e3c2f706174683e3c6c696e6561724772616469656e742069643d27736b794772616469656e74272078313d2731303025272079313d2731303025273e3c73746f70206f66667365743d273025272073746f702d636f6c6f723d276c69676874626c7565272073746f702d6f7061636974793d272e35273e3c616e696d617465206174747269627574654e616d653d2773746f702d636f6c6f72272076616c7565733d276c69676874626c75653b626c75653b7265643b7265643b626c61636b3b7265643b7265643b707572706c653b6c69676874626c756527206475723d2736732720726570656174436f756e743d27696e646566696e69746527202f3e3c2f73746f703e3c73746f70206f66667365743d2731303025272073746f702d636f6c6f723d276c69676874626c7565272073746f702d6f7061636974793d272e35273e3c616e696d617465206174747269627574654e616d653d2773746f702d636f6c6f72272076616c7565733d276c69676874626c75653b6f72616e67653b707572706c653b707572706c653b626c61636b3b707572706c653b707572706c653b626c75653b6c69676874626c756527206475723d2736732720726570656174436f756e743d27696e646566696e69746527202f3e3c616e696d617465206174747269627574654e616d653d276f6666736574272076616c7565733d272e39353b2e38303b2e36303b2e34303b2e32303b303b2e32303b2e34303b2e36303b2e38303b2e393527206475723d2736732720726570656174436f756e743d27696e646566696e69746527202f3e3c2f73746f703e3c2f6c696e6561724772616469656e743e3c6c696e6561724772616469656e742069643d2774726f7069634772616469656e74272078313d2731303025272079313d2731303025273e3c73746f70206f66667365743d273025272073746f702d636f6c6f723d27677265656e272073746f702d6f7061636974793d272e35273e3c616e696d617465206174747269627574654e616d653d2773746f702d636f6c6f72272076616c7565733d27677265656e3b79656c6c6f773b7265643b707572706c653b7265643b79656c6c6f773b677265656e27206475723d2736732720726570656174436f756e743d27696e646566696e69746527202f3e3c2f73746f703e3c73746f70206f66667365743d2731303025272073746f702d636f6c6f723d27677265656e272073746f702d6f7061636974793d272e35273e3c616e696d617465206174747269627574654e616d653d2773746f702d636f6c6f72272076616c7565733d27707572706c653b7265643b79656c6c6f773b6f72616e67653b79656c6c6f773b7265643b707572706c6527206475723d2736732720726570656174436f756e743d27696e646566696e69746527202f3e3c616e696d617465206174747269627574654e616d653d276f6666736574272076616c7565733d272e39353b2e38303b2e36303b2e34303b2e32303b303b2e32303b2e34303b2e36303b2e38303b2e393527206475723d2736732720726570656174436f756e743d27696e646566696e69746527202f3e3c2f73746f703e3c2f6c696e6561724772616469656e743e3c6c696e6561724772616469656e742069643d27666f726573744772616469656e74272078313d2731303025272079313d2731303025273e3c73746f70206f66667365743d273025272073746f702d636f6c6f723d276f72616e6765272073746f702d6f7061636974793d272e35273e3c616e696d617465206174747269627574654e616d653d2773746f702d636f6c6f72272076616c7565733d27677265656e3b79656c6c6f773b7265643b707572706c653b7265643b79656c6c6f773b677265656e27206475723d2736732720726570656174436f756e743d27696e646566696e69746527202f3e3c2f73746f703e3c73746f70206f66667365743d2731303025272073746f702d636f6c6f723d27677265656e272073746f702d6f7061636974793d272e35273e3c616e696d617465206174747269627574654e616d653d2773746f702d636f6c6f72272076616c7565733d27677265656e3b77686974653b6c69676874626c75653b626c75653b6c69676874626c75653b77686974653b677265656e27206475723d2736732720726570656174436f756e743d27696e646566696e69746527202f3e3c616e696d617465206174747269627574654e616d653d276f6666736574272076616c7565733d272e39353b2e38303b2e36303b2e34303b2e32303b303b2e32303b2e34303b2e36303b2e38303b2e393527206475723d2736732720726570656174436f756e743d27696e646566696e69746527202f3e3c2f73746f703e3c2f6c696e6561724772616469656e743e3c2f646566733e3c75736520786c696e6b3a687265663d2723723127207374726f6b653d27272f3e3c75736520786c696e6b3a687265663d2723723627207472616e73666f726d3d27726f7461746528393020313630203136302927207374726f6b653d27272f3e3c75736520786c696e6b3a687265663d2723723227207472616e73666f726d3d27726f7461746528393020313630203136302927207374726f6b653d27272f3e3c75736520786c696e6b3a687265663d2723723327207472616e73666f726d3d27726f746174652831323020313630203136302927207374726f6b653d27272f3e3c75736520786c696e6b3a687265663d2723723327207472616e73666f726d3d27726f746174652831383020313630203136302927207374726f6b653d27272f3e3c75736520786c696e6b3a687265663d2723723627207472616e73666f726d3d27726f7461746528333020313630203136302927207374726f6b653d27576f772c20796f757220666c6f776572206a75737420626c6f73736f6d65642120576f616821272f3e3c75736520786c696e6b3a687265663d2723723427207472616e73666f726d3d27726f746174652833333020313630203136302927207374726f6b653d27272f3e3c75736520786c696e6b3a687265663d2723723627207472616e73666f726d3d27726f746174652832373020313630203136302927207374726f6b653d27272f3e3c75736520786c696e6b3a687265663d2723723127207472616e73666f726d3d27726f746174652832343020313630203136302927207374726f6b653d27272f3e3c75736520786c696e6b3a687265663d2723723427207472616e73666f726d3d27726f746174652832313020313630203136302927207374726f6b653d27272f3e3c75736520786c696e6b3a687265663d2723723327207374726f6b653d27272f3e3c75736520786c696e6b3a687265663d2723723427207472616e73666f726d3d27726f746174652832373020313630203136302927207374726f6b653d27272f3e3c75736520786c696e6b3a687265663d2723723127207472616e73666f726d3d27726f746174652831383020313630203136302927207374726f6b653d27272f3e3c75736520786c696e6b3a687265663d2723723527207472616e73666f726d3d27726f746174652832343020313630203136302927207374726f6b653d27272f3e3c75736520786c696e6b3a687265663d2723723627207472616e73666f726d3d27726f746174652832313020313630203136302927207374726f6b653d27272f3e3c75736520786c696e6b3a687265663d2723723227207472616e73666f726d3d27726f746174652832313020313630203136302927207374726f6b653d27272f3e3c75736520786c696e6b3a687265663d2723723327207472616e73666f726d3d27726f746174652833303020313630203136302927207374726f6b653d27272f3e3c75736520786c696e6b3a687265663d2723723427207472616e73666f726d3d27726f746174652831353020313630203136302927207374726f6b653d27272f3e3c75736520786c696e6b3a687265663d2723723527207472616e73666f726d3d27726f746174652831323020313630203136302927207374726f6b653d27272f3e3c75736520786c696e6b3a687265663d2723723527207472616e73666f726d3d27726f7461746528363020313630203136302927207374726f6b653d27272f3e3c75736520786c696e6b3a687265663d2723723227207472616e73666f726d3d27726f746174652832373020313630203136302927207374726f6b653d27272f3e3c75736520786c696e6b3a687265663d2723723227207472616e73666f726d3d27726f746174652833333020313630203136302927207374726f6b653d27272f3e3c75736520786c696e6b3a687265663d2723723427207472616e73666f726d3d27726f7461746528333020313630203136302927207374726f6b653d27272f3e3c75736520786c696e6b3a687265663d2723723327207472616e73666f726d3d27726f7461746528363020313630203136302927207374726f6b653d27272f3e3c75736520786c696e6b3a687265663d2723723127207472616e73666f726d3d27726f746174652831323020313630203136302927207374726f6b653d27272f3e3c75736520786c696e6b3a687265663d2723723227207472616e73666f726d3d27726f746174652831353020313630203136302927207374726f6b653d27272f3e3c75736520786c696e6b3a687265663d2723723427207472616e73666f726d3d27726f7461746528393020313630203136302927207374726f6b653d27272f3e3c75736520786c696e6b3a687265663d2723723527207472616e73666f726d3d27726f746174652831383020313630203136302927207374726f6b653d27272f3e3c75736520786c696e6b3a687265663d2723723527207374726f6b653d27272f3e3c75736520786c696e6b3a687265663d2723723127207472616e73666f726d3d27726f746174652833303020313630203136302927207374726f6b653d27272f3e3c75736520786c696e6b3a687265663d2723723527207472616e73666f726d3d27726f746174652833303020313630203136302927207374726f6b653d27272f3e3c75736520786c696e6b3a687265663d2723723327207472616e73666f726d3d27726f746174652832343020313630203136302927207374726f6b653d27272f3e3c75736520786c696e6b3a687265663d2723723627207472616e73666f726d3d27726f746174652831353020313630203136302927207374726f6b653d27272f3e3c75736520786c696e6b3a687265663d2723723127207472616e73666f726d3d27726f7461746528363020313630203136302927207374726f6b653d27",
  "linkReferences": {},
  "deployedLinkReferences": {}
}